:020000040800F2
:10000000400D00207D0800083D0400084904000858
:100010004F040008550400085B04000800000000BD
:100020000000000000000000000000006104000863
:100030006D04000800000000790400088504000831
:10004000C5080008C5080008C5080008C50800085C
:10005000C5080008C5080008C5080008C50800084C
:10006000C5080008C5080008C5080008C50800083C
:10007000C5080008C5080008C5080008C50800082C
:10008000C5080008C5080008C5080008C50800081C
:10009000C5080008C5080008C5080008C50800080C
:1000A000C5080008C5080008C5080008C5080008FC
:1000B000C5080008C5080008C5080008C5080008EC
:1000C000C5080008C5080008C5080008C5080008DC
:1000D000C5080008C5080008C5080008C5080008CC
:1000E000C5080008C5080008C5080008C5080008BC
:1000F000C5080008C5080008C5080008C5080008AC
:10010000C5080008C5080008C5080008C50800089B
:10011000C5080008C5080008C5080008C50800088B
:10012000C5080008C5080008C5080008C50800087B
:1001300001F0FF01102A2BDB10F0070F08D010F898
:10014000013B013A8B422DD010F0070F42B3F6D19C
:10015000F0B441EA012141EA014122F007047FF0B5
:1001600000070023F0E80256083C85EA010586EA0C
:10017000010685FA47F5A3FA87F586FA47F6A5FA48
:1001800087F68EB9EED1F0BC01F0FF0102F0070254
:1001900032B110F8013B013A83EA010313B1F8D1FF
:1001A0000020704701387047002D06BF35460338E0
:1001B000073815F0010F07D1013015F4807F02BF19
:1001C000013015F4C03F0130F0BC0138704700BF6A
:1001D00010B5054C237833B9044B13B10448AFF381
:1001E00000800123237010BDEC00002000000000FF
:1001F000E42C000808B5034B1BB103490348AFF3D7
:10020000008008BD00000000F0000020E42C000881
:1002100080B582B000AF0346FB71FB79104A32F81B
:100220001330184601F02EF9FB790E4A52F82300DC
:10023000FB790D4A52F823300322102100F05CFFB5
:10024000FB79FA79074951F8222014321146064AFF
:1002500052F823300B6000BF0837BD4680BD00BF99
:1002600040000020000000201000002080B483B077
:1002700000AF0346FB71FB79FA79074951F8222058
:1002800010321146054A52F823300B6000BF0C377C
:10029000BD4680BC704700BF000000201000002059
:1002A00080B483B000AF0346FB71FB79FA7907494C
:1002B00051F8222014321146054A52F823300B60BF
:1002C00000BF0C37BD4680BC704700BF0000002057
:1002D0001000002080B582B000AF03460A46FB71D3
:1002E0001346BB71FB791F4A32F81330184601F0F0
:1002F000C9F84FF4C06001F0C5F8FB791A4A52F80A
:100300002300FB79194A52F823300322042100F01C
:10031000F3FEBB79012B21D1FB79154AD35600227C
:100320000221184601F026F8FB79124AD25CFB79CB
:100330001149CB5C1946104600F092FFFB790F4A39
:1003400052F8233001220021184600F04DFEFB79BF
:100350000A4A52F82330184600F0C0FE00BF0837A2
:10036000BD4680BD600000204800002054000020F1
:100370007C0000207400002078000020680000202D
:1003800080B584B000AF78600023FB607B68244AAE
:10039000934202D10023FB6005E07B68214A93422F
:1003A00001D10123FB60204AFB6832F81330184664
:1003B00001F068F81D4AFB6832F81330184601F066
:1003C00061F81B4AFB6852F823001A4AFB6852F88E
:1003D00023300322182100F08FFE154AFB6852F8E3
:1003E0002300154AFB6852F823300322042100F051
:1003F00083FE786801F0A0F94FF4E131786801F0EC
:10040000FDF90421786801F096FA0821786801F076
:1004100076FA786801F062FA00BF1037BD4680BDF9
:1004200000380140004400403C0000202000002033
:1004300034000020240000202C00002080B400AFF5
:1004400000BFBD4680BC704780B400AFFEE780B4FB
:1004500000AFFEE780B400AFFEE780B400AFFEE778
:1004600080B400AF00BFBD4680BC704780B400AF11
:1004700000BFBD4680BC704780B400AF00BFBD4622
:1004800080BC704780B500AF00F004F800F0E4F9DC
:1004900000BF80BD80B500AF0D4B1B68002B11D095
:1004A0000B4B1B68B3F5FA7F03D20020FFF7DEFE8B
:1004B00002E00020FFF7F4FE054B1B68013B044AF5
:1004C000136003E0024B4FF47A721A6000BF80BDE4
:1004D0000801002080B584B000AF00237B600023BA
:1004E000FB734FF6FF73BB600023FB7001F01EFB34
:1004F00000F084F90020FFF78BFE0120FFF788FE53
:100500000220FFF785FE4D48FFF73AFF002100204B
:10051000FFF7E0FE002001F01DF8034619464848A9
:1005200001F08EFC012001F015F8034619464548FC
:1005300001F086FC022001F00DF8034619464248FE
:1005400001F07EFC032001F005F8034619463F4800
:1005500001F076FC00F0D0F800F084F802213C486D
:1005600000F02EFD3B4B40F2AB721A60394B00227B
:100570005A60384B00225A72364B00221A72354BA1
:1005800008229A7201F028FC78607B681B0EDBB2AF
:1005900019467B681B0CDBB21A467B681B0ADBB270
:1005A0002D4801F04DFC4FF4FA7000F041F9294B51
:1005B000A022DA72274BA1221A73264BA2225A7369
:1005C000244BA3229A73234BA422DA73214BA52236
:1005D0001A74204BA6225A741E4BA7229A741F48E5
:1005E00001F02EFC0023FB730AE0FB7B194A134445
:1005F000DB7A19461A4801F023FCFB7B0133FB73BD
:10060000144B9B7AFA7B9A42EFD31249104800F0C0
:100610009BFB0346FB704FF6FF73BB6002E0BB68B9
:10062000013BBB60FB781946094800F069FC0346B2
:10063000012BB8D0BB68002BF1D1B4E700380140E2
:10064000FC2C00080C2D00081C2D00082C2D000887
:1006500000640040180100203C2D00086C2D0008AB
:10066000842D000880B588B000AF07F11403194647
:10067000002000F03FF93B461946012000F03AF90E
:100680001C4800F021F900233B7601237B760023F0
:10069000BB760123FB7600233B7700237B77002387
:1006A0003B7500237B750623BB750123FB75242353
:1006B000FB8307F1140319460E4800F0B9F9002333
:1006C0007B810023BB810123FB8100233B8000232E
:1006D0007B800023BB800023FB8000233B81012320
:1006E0003B743B46184600F077FA00BF2037BD4602
:1006F00080BD00BF0064004080B500AF40F21970BB
:1007000000F0C0FE40F2026000F0BCFE4FF48053E7
:1007100003221821054800F0EFFC4FF40063032288
:100720004821024800F0E8FC00BF80BD00080140FD
:1007300080B582B000AF78607B68DBB29BB21946AF
:10074000074801F014F900BF0721054801F020F91E
:100750000346002BF8D07B6818460837BD4680BD9D
:100760000038014080B483B000AF03463960FB71AC
:1007700097F90730002B0BDA3B68DAB20C49FB79AA
:1007800003F00F03043B1201D2B20B441A7609E0C6
:100790003B68DAB2074997F907301201D2B20B442D
:1007A00083F8002300BF0C37BD4680BC704700BFF4
:1007B00000ED00E000E100E080B582B000AF7860BD
:1007C0007B68013BB3F1807F01D301230FE00A4A2C
:1007D0007B68013B53600F214FF0FF30FFF7C2FFF2
:1007E000054B00229A60044B07221A60002318462A
:1007F0000837BD4680BD00BF10E000E080B500AF07
:10080000094B1B68094AA2FB03239B091846FFF703
:10081000D3FF0346002B00D0FEE700214FF0FF304E
:10082000FFF7A0FF00BF80BD84000020D34D621001
:1008300080B483B000AF7860064A7B68136000BF65
:10084000044B1B68002BFBD100BF00BF0C37BD461B
:1008500080BC70470C01002080B400AF064B1B68C1
:10086000002B04D0044B1B68013B034A136000BFFC
:10087000BD4680BC704700BF0C010020002103E092
:100880000B4B5B58435004310A480B4B42189A42B9
:10089000F6D30A4A02E0002342F8043B084B9A428E
:1008A000F9D301F043F901F09FFAFFF713FE704707
:1008B000442E000800000020EC000020EC00002086
:1008C0003C010020FEE7000080B582B000AF7860F8
:1008D0007B68074A934207D140F2194000F0F4FDCB
:1008E00040F2194000F012FE00BF0837BD4680BD3F
:1008F0000064004080B485B000AF03463960FB71EE
:100900003B68002B00D1FEE7FB79032B00F28A80C5
:1009100001A252F823F000BF290900086F0900085E
:10092000A7090008E30900083B6800225A713B68E8
:100930000022DA713B6800229A713B6840F2FF3274
:100940005A813B6800221A723B6800225A703B6849
:1009500002229A703B680022DA703B6800221A710A
:100960003B6800225A723B6800221A705BE03B68C9
:100970000122DA813B6800221A743B6800221A8146
:100980003B6800221A803B6800225A803B680022A4
:100990009A803B680022DA803B6800229A813B689B
:1009A00000225A813FE00023FB7307E0FB7B3A689B
:1009B00013440022DA72FB7B0133FB73FB7B072BB2
:1009C000F4D93B6800229A723B6800225A603B6867
:1009D00000221A723B6800225A723B6800221A6099
:1009E00021E00023FB7307E0FB7B3A6813440022FD
:1009F000DA72FB7B0133FB73FB7B072BF4D93B687B
:100A000000229A723B6800225A603B6800221A72E8
:100A10003B680022DA743B6800225A723B6800226D
:100A20001A6000E0FEE700BF1437BD4680BC704787
:100A300080B485B000AF786039604FF6FF73FB601B
:100A40000023FB727B681A687B6822F002021A603E
:100A50007B681A687B6842F001021A6002E0FB685A
:100A6000013BFB607B6804331B6803F00103012B2F
:100A700002D0FB68002BF2D17B6804331B6803F0C3
:100A80000103012B02D00023FB729FE03B681B781F
:100A90009A073B685B781B0603F040731A433B6878
:100AA0009B781B0403F470231A433B68DB781B0517
:100AB00003F4E0031A433B685B89013BC3F309037A
:100AC00079681C3113430B603B681B79012B06D1FD
:100AD0007B681A687B6842F080021A6005E07B68D8
:100AE0001A687B6822F080021A603B685B79012BF0
:100AF00006D17B681A687B6842F040021A6005E004
:100B00007B681A687B6822F040021A603B689B7918
:100B1000012B06D17B681A687B6842F020021A60BC
:100B200005E07B681A687B6822F020021A603B6847
:100B3000DB79012B06D17B681A687B6822F01002F2
:100B40001A6005E07B681A687B6842F010021A6040
:100B50003B681B7A012B06D17B681A687B6822F000
:100B600008021A6005E07B681A687B6842F0080298
:100B70001A603B685B7A012B06D17B681A687B6838
:100B800042F004021A6005E07B681A687B6822F074
:100B900004021A607B681A687B6822F001021A60FE
:100BA0004FF6FF73FB6002E0FB68013BFB607B6874
:100BB00004331B6803F00103012B02D1FB68002BF7
:100BC000F2D1FB68002B01D00123FB72FB7A18469F
:100BD0001437BD4680BC704780B485B000AF7860E4
:100BE0000023FB607B685B891A4601239340FB600E
:100BF000504B1B684F4A43F0010313604E4B1A6879
:100C0000FB68DB434C4913400B607B68DB89002B9E
:100C100029D14A4B1A68FB68DB43484913400B60F3
:100C20007B68DB881A047B685B8818467B685B8975
:100C300003F1006303F6C843DB00194642EA0003F0
:100C40000B607B689B881A047B681B8818467B684E
:100C50005B8903F1006303F6C843DB0004331946E4
:100C600042EA00030B607B68DB89012B28D1334B00
:100C70001A683249FB6813430B607B681B881A04AF
:100C80007B685B8818467B685B8903F1006303F629
:100C9000C843DB00194642EA00030B607B689B886F
:100CA0001A047B68DB8818467B685B8903F1006364
:100CB00003F6C843DB000433194642EA00030B6025
:100CC0007B689B89002B07D11D4B1A68FB68DB43AF
:100CD0001B4913400B6005E0194B1A681849FB6863
:100CE00013430B607B681B89002B07D1154B1A68D7
:100CF000FB68DB43134913400B6005E0114B1A6896
:100D00001049FB6813430B607B681B7C012B05D1EA
:100D1000094B1A680849FB6813430B60054B1B68B5
:100D2000044A23F00103136000BF1437BD4680BCA2
:100D3000704700BF006600401C6600400C66004023
:100D4000046600401466004080B485B000AF78604F
:100D500039600023FB737B6808331B6803F08063F2
:100D6000B3F1806F02D10023FB7317E07B68083377
:100D70001B6803F00063B3F1006F02D10123FB7322
:100D80000CE07B6808331B6803F08053B3F1805F8D
:100D900002D10223FB7301E00323FB73FB7B032BD4
:100DA00001D10323A6E0FB7B1A017B68134403F502
:100DB000C0731B68FA7B11017A680A4402F5C0729D
:100DC00003F0010313603B681B7A002B15D1FB7BFA
:100DD0001A017B68134403F5C0731A683B681B68EB
:100DE0005B053968497A0B43F97B0801796801444E
:100DF00001F5C07113430B6017E0FB7B1A017B68A0
:100E0000134403F5C0731A683B685B68DB003968FC
:100E1000097A0B433968497A0B43F97B08017968F1
:100E2000014401F5C07113430B60FB7B1A017B6821
:100E3000134403F5C2731B68FA7B11017A680A44F4
:100E400002F5C27223F00F031360FB7B1A017B686B
:100E5000134403F5C2731B683A68927A1046FA7B12
:100E600011017A680A4402F5C272034313603B68B9
:100E70009B7B1A063B685B7B1B0403F47F031A43CE
:100E80003B681B7B1B029BB213433A68D27A104625
:100E9000FA7B11017A680A4402F5C47203431360B5
:100EA0003B689B7C1A063B685B7C1B0403F47F0356
:100EB0001A433B681B7C1B029BB213433A68D27BEC
:100EC0001046FA7B11017A680A4402F5C6720343A0
:100ED0001360FB7B1A017B68134403F5C0731B6826
:100EE000FA7B11017A680A4402F5C07243F00103EB
:100EF0001360FB7B18461437BD4680BC704700006A
:100F000080B485B000AF78600B46FB700023FB73A4
:100F10000023BB60FB78022B14D0022B19DC002BC2
:100F200002D0012B07D014E07B6808331A68214BEC
:100F30001340BB6010E07B6808331A681E4B1340F7
:100F4000BB6009E07B6808331A681C4B1340BB6028
:100F500002E00023BB6000BFBB68184A93421CD06C
:100F6000BB68164A93421BD8BB68134A934211D000
:100F7000BB68114A934213D8BB68002B04D0BB68EE
:100F80000C4A934203D00BE00223FB730BE00123D6
:100F9000FB7308E00123FB7305E00123FB7302E010
:100FA0000023FB7300BFFB7B18461437BD4680BC93
:100FB000704700BF03000004000300080000031096
:100FC00080B483B000AF786039607B6814331A68EE
:100FD0007B68143319463B6813430B6000BF0C3722
:100FE000BD4680BC7047000080B483B000AF78601D
:100FF0000B46FB701346BB70344B1A687B68DB43AF
:10100000324913400B60324B1A687B68DB4330492E
:1010100013400B602F4B1A687B68DB432D4913404C
:101020000B602D4B1A687B68DB432B4913400B6028
:10103000FB78002B02D0012B07D00DE0234B1A6860
:1010400022497B6813430B6006E0214B1A68204954
:101050007B6813430B6000BFBB78022B22D0022BAE
:101060002DDC002B02D0012B0ED028E0194B1A6882
:1010700018497B6813430B60174B1A687B68DB4386
:10108000154913400B601BE0124B1A687B68DB4369
:10109000104913400B60104B1A680F497B681343CB
:1010A0000B600DE00B4B1A680A497B6813430B6019
:1010B000094B1A6808497B6813430B6000E000BFC6
:1010C00000BF0C37BD4680BC704700BF0004014024
:1010D00004040140080401400C04014080B483B0C2
:1010E00000AF7860034A7B68136000BF0C37BD46D1
:1010F00080BC70471404014080B489B000AFF86030
:10110000B9607A603B600023BB6100237B61BB68F0
:1011100003F00F03BB61BB6803F01003002B14D076
:101120007B68042B0DD1BB6943F00303BB61FB68F3
:101130003C331A68FB683C3319463B6813430B6029
:1011400003E0BA697B681343BB610023FB8339E08A
:10115000FB8B01229A403B681340002B2FD0FB6889
:101160001B687B61FB8B9B000F2202FA03F3DB43BE
:101170007A6913407B61FB8B9B00BA6902FA03F327
:101180007A6913437B61BB68282B09D1FB8B012251
:101190009A40FB68143319463B6813400B600BE020
:1011A000BB68482B08D1FB8B01229A40FB681033A7
:1011B00019463B6813400B60FB687A691A60FB8B29
:1011C0000133FB83FB8B072BC2D90823FB833EE053
:1011D000FB8B01229A403B681340002B34D0FB6804
:1011E00004331B687B61FB8B083B9B000F2202FAD8
:1011F00003F3DB437A6913407B61FB8B083B9B0065
:10120000BA6902FA03F37A6913437B61BB68282B3E
:1012100009D1FB8B01229A40FB68143319463B68C5
:1012200013400B600BE0BB68482B08D1FB8B0122FD
:101230009A40FB68103319463B6813400B60FB680B
:1012400004331A467B691360FB8B0133FB83FB8BF2
:101250000F2BBDD900BF00BF2437BD4680BC7047EF
:1012600080B485B000AF03460A46FB711346BB71DC
:101270000023FB60BB7903F003039B000F2202FAFB
:1012800003F3FB60BB79032B13D82D4B1A68FB6863
:10129000DB432B4913400B60294B1A68F979BB7962
:1012A00003F003039B0001FA03F3254913430B608A
:1012B00040E0BB79072B13D8224B1A68FB68DB434D
:1012C000204913400B601F4B1A68F979BB7903F072
:1012D00003039B0001FA03F31A4913430B6029E04F
:1012E000BB790B2B13D8184B1A68FB68DB431649E4
:1012F00013400B60144B1A68F979BB7903F00303B0
:101300009B0001FA03F3104913430B6012E00F4BEB
:101310001A68FB68DB430D4913400B600B4B1A68DE
:10132000F979BB7903F003039B0001FA03F3074942
:1013300013430B6000BF1437BD4680BC704700BF2D
:10134000080001400C000140100001401400014061
:1013500080B483B000AF7860054A7B6843F0BF6318
:1013600043F40033D36000BF0C37BD4680BC7047E8
:1013700000ED00E080B586B000AF0346FB710B4680
:10138000BB7113467B710023FB6000237B6100234C
:101390003B613A4BDB6803F4E063B3F5E06F04D1E3
:1013A00000237B6104233B6137E0344BDB6803F4AB
:1013B000E063B3F5C06F04D101237B6103233B617C
:1013C0002BE02E4BDB6803F4E063B3F5A06F04D190
:1013D00002237B6102233B611FE0284BDB6803F49F
:1013E000E063B3F5806F04D103237B6101233B618C
:1013F00013E0224BDB6803F4E063B3F5407F04D1D4
:1014000004237B6100233B6107E04FF4A060FFF7FA
:101410009FFF02237B6102233B61BA797B69C3F1A1
:10142000040302FA03F3FB607A793B69C3F1040316
:101430000F2121FA03F31340FA681343FB60FB68A2
:101440001B01FB600E4A97F90730F968C9B21344D3
:101450000A4683F80023FB7903F01F03084997F934
:101460000720521152B21046012202FA03F341F84A
:10147000203000BF1837BD4680BD00BF00ED00E042
:1014800000E100E080B483B000AF0346FB80FB883E
:101490009B099BB203F1804303F504331968FB8871
:1014A00003F01F0301229A40FB889B099BB203F1C2
:1014B000804303F50433184641EA0203036000BF8A
:1014C0000C37BD4680BC704780B483B000AF034684
:1014D000FB80FB889B099BB203F1804303F5043337
:1014E0001968FB8803F01F0301229A40FB889B09BF
:1014F0009BB203F1804303F50433184641EA02032B
:10150000036000BF0C37BD4680BC704780B483B019
:1015100000AF0346FB80FB889B099BB203F180432D
:1015200003F504331968FB8803F01F03012202FA54
:1015300003F3DA43FB889B099BB203F1804303F575
:101540000433184601EA0203036000BF0C37BD46AE
:1015500080BC704790B498B000AF0346FB71002385
:10156000FB656E4B07F11C040FCB84E80F006C4A3F
:1015700007F1140392E8030083E80300684A07F1C7
:101580000C0392E8030083E80300664B1B689B088A
:1015900003F00303FB64FB6C022B0FD0FB6C022BEC
:1015A00064D8FB6C002B03D0FB6C012B03D05DE0F7
:1015B0005D4BBB655DE05C4BBB655AE0594B1B68FE
:1015C00003F48033BB64BB6CB3F5803F19D1574B38
:1015D0001B6803F080437B647B6C002B02D1524B71
:1015E0003B6501E0524B3B654E4B1B6803F40033F7
:1015F0003B643B6CB3F5003F05D13B6D5B083B653D
:1016000001E04C4B3B65474B1B689B0C03F00F0301
:101610007B65444B1B6803F00063002B03D07B6D9C
:1016200043F010037B653F4B1B6803F08043002BA6
:1016300003D07B6D43F020037B657B6D0E2B03D8BD
:101640007B6D02337B650BE07B6D0E2B06D97B6DCA
:101650003E2B03D87B6D01337B6501E03F237B6527
:101660003B6D7A6D02FB03F3BB6502E02E4BBB655D
:1016700000BF2C4B1B681B0903F00F03FB6307F132
:101680001C02FB6B13441B78BB63BA6DBB6B22FA65
:1016900003F37B63234B1B681B0A03F00703FB6305
:1016A00007F11402FB6B13441B78BB637A6BBB6BB3
:1016B00022FA03F33B631B4B1B68DB0A03F00703AF
:1016C000FB6307F10C02FB6B13441B78BB637A6B63
:1016D000BB6B22FA03F3FB62FB79032B16D801A242
:1016E00052F823F0F5160008FB1600080117000851
:1016F00007170008BB6DFB6509E07B6BFB6506E027
:101700003B6BFB6503E0FB6AFB6500E000BFFB6D24
:1017100018466037BD4690BC704700BF8C2D00084E
:101720009C2D00080410024000127A002C10024088
:10173000006CDC0200093D0080B582B000AF78602B
:101740007B68294A93421CD07B68274A934245D83C
:101750007B68264A934238D07B68244A93423DD81E
:101760007B68234A934227D07B68214A934235D82D
:101770007B68204A93420DD07B681F4A934212D067
:101780002CE040F20E30FFF79FFE40F20E30FFF7E4
:10179000BDFE24E040F21140FFF796FE40F21140FA
:1017A000FFF7B4FE1BE040F21240FFF78DFE40F25F
:1017B0001240FFF7ABFE12E040F21340FFF784FE49
:1017C00040F21340FFF7A2FE09E040F21440FFF799
:1017D0007BFE40F21440FFF799FE00E000BF00BF1F
:1017E0000837BD4680BD00BF0038014000500040B2
:1017F000004C0040004400400048004080B586B0E6
:1018000000AF7860396000237B6100233B610023D7
:10181000FB600023BB607B682B4A93421CD07B6833
:10182000294A934231D87B68284A934228D07B6862
:10183000264A934229D87B68254A93421BD07B686D
:10184000234A934221D87B68224A934209D07B687D
:10185000214A93420AD018E00320FFF77BFE78610B
:1018600014E00220FFF776FE78610FE00220FFF718
:1018700071FE78610AE00220FFF76CFE786105E0F6
:101880000220FFF767FE786100E000BF3B685A085E
:101890007B691A443B68B2FBF3F3BB60BA684FF64E
:1018A000F07313403B61BB6803F00F03FB603A69C0
:1018B000FB6842EA03017B6808331A468BB2136067
:1018C00000BF1837BD4680BD0038014000500040C1
:1018D000004C0040004400400048004080B483B009
:1018E00000AF78607B680C331B687A680C3243F475
:1018F0000053136000BF0C37BD4680BC704780B4F6
:1019000083B000AF786039607B680C331B687A68FD
:101910000C3223F0080313607B680C331A683B68B1
:1019200003F0080379680C3113430B6000BF0C37D8
:10193000BD4680BC704780B483B000AF786039602A
:101940007B680C331B687A680C3223F00403136045
:101950007B680C331A683B6803F0040379680C3128
:1019600013430B6000BF0C37BD4680BC704780B48A
:1019700083B000AF78600B467B807B887A68043246
:10198000C3F30803136000BF0C37BD4680BC70472B
:1019900080B483B000AF78600B467B807B889B0966
:1019A0009BB21A467B6813441A687B8803F01F03B6
:1019B00022FA03F303F00103002B01D0012300E01E
:1019C000002318460C37BD4680BC704780B483B0F6
:1019D00000AF7860104B1A687B6813440F4A93423B
:1019E00006D30D4B1A687B6813440D4A934202D903
:1019F0004FF0FF330AE0084B1A687B681344064A2D
:101A00001360054B1A687B685B42134418460C3719
:101A1000BD4680BC704700BF800000203C01002014
:101A20004005002080B586B000AFF860B9607A60EC
:101A300000237B610AE0BB685A1CBA6093F900304E
:101A40001846FEF775FE7B6901337B617A697B6816
:101A50009A42F0DB7B6818461837BD4680BD80B4DB
:101A600083B000AF78604FF0FF3318460C37BD46A7
:101A700080BC704780B483B000AF786039603B6849
:101A80004FF400525A60002318460C37BD4680BC04
:101A9000704780B483B000AF7860012318460C37DC
:101AA000BD4680BC704780B485B000AFF860B960B7
:101AB0007A60002318461437BD4680BC704780B555
:101AC00086B000AFF860B9607A6000237B610AE0FD
:101AD000AFF300800146BB685A1CBA604AB21A7064
:101AE0007B6901337B617A697B689A42F0DB7B68B2
:101AF00018461837BD4680BD80B485B000AF786009
:101B00000023FB6002E0FB680133FB607A68134648
:101B10009B0013445B001A46FB689A42F3D800BF4F
:101B200000BF1437BD4680BC7047000080B582B04E
:101B300000AF4F4B1B684E4A43F00103136000BFD8
:101B40004B4B1B6803F00203002BF9D0494B1B6879
:101B500003F00C03082B64D100237B6002E07B6858
:101B600001337B607B684F2BF9D9424B1B683B608C
:101B70003B6823F0F0033B603B6843F080033B602D
:101B80003C4A3B68136000237B6002E07B680133C2
:101B90007B607B684F2BF9D9364B1B683B603B68F9
:101BA00023F0F0033B603B6843F090033B60314A15
:101BB0003B68136000237B6002E07B6801337B603D
:101BC0007B684F2BF9D92B4B1B683B603B6823F09C
:101BD000F0033B603B6843F0A0033B60254A3B6851
:101BE000136000237B6002E07B6801337B607B68CD
:101BF0004F2BF9D91F4B1B683B603B6823F0F00368
:101C00003B603B6843F0B0033B601A4A3B6813609B
:101C100000237B6002E07B6801337B607B684F2B95
:101C2000F9D9C820FFF768FF124B1B68114A23F04F
:101C3000030313600E4B1B680D4A23F0847323F4D7
:101C4000803313600C4B4FF41F021A60084B1B6863
:101C5000074A23F480231360064B00221A60074BC7
:101C600000221A6000F00CF800BF0837BD4680BDA6
:101C70000010024004100240081002402C100240E4
:101C800080B500AF00F002F800BF80BD80B485B021
:101C900000AF0023FB600023BB604A4B1B68494A2E
:101CA00043F480331360FB680133FB60454B1B68D2
:101CB00003F40033BB60BB68002B04D1FB684FF614
:101CC000FF729342EFD13F4B1B6803F40033002BAC
:101CD00000D1FEE73C4B1B683B4A43F08053136046
:101CE0003A4B1B68394A43F440431360384B384A37
:101CF0001B681360364B364A1B681360344B1B68F5
:101D0000334A43F480631360314B1B68304A23F439
:101D1000403313602E4B1B682D4A43F4403313604D
:101D20002B4B1B682A4A23F0904323F47013136053
:101D3000274B1B68264A43F0036343F48023136058
:101D4000204B1B681F4A43F08073136000BF1D4B7C
:101D50001B6803F00073002BF9D01C4B1B681B4A57
:101D600043F48033136000BF1A4B1B6803F48033C5
:101D7000002BF9D0154B1B68144A43F40033136051
:101D800000BF144B1B6803F40033002BF9D0104B39
:101D90001B687B607B6823F003037B607B6843F0F8
:101DA00002037B600A4A7B68136000BF084B1B6814
:101DB00003F00803002BF9D000BF00BF1437BD4665
:101DC00080BC7047001002401C10024000700040B0
:101DD000041002400470004080B400AF4FF08073E4
:101DE0001846BD4680BC704770B50D4D0D4C641B48
:101DF000A4100026A64209D10B4D0C4C00F072FF36
:101E0000641BA4100026A64205D170BD55F8043B02
:101E100098470136EEE755F8043B98470136F2E75C
:101E20003C2E00083C2E00083C2E0008402E0008E6
:101E300002440346934200D1704703F8011BF9E7BF
:101E40000FB40A4B13B51C6824B1A36913B920461B
:101E500000F066F805AB049AA1680193204600F0F3
:101E6000CFF902B0BDE8104004B0704788000020F0
:101E7000002310B50446C0E90033C0E90433836091
:101E800081814366C2818361194608225C30FFF775
:101E9000CFFF054B6362054BA362054BE362054B25
:101EA0002462236310BD00BFA9270008CB270008C8
:101EB0000328000827280008014900F0AFB800BF38
:101EC000012B000870B54A1E682555430E4605F1E2
:101ED000740100F013F9044640B10021C0E9001676
:101EE0000C30A06005F16802FFF7A2FF204670BD2C
:101EF000014800F0B3B800BF38010020014800F0ED
:101F0000AEB800BF38010020014800F0A7B800BFFC
:101F100033010020014800F0A2B800BF33010020C7
:101F200010B50446FFF7F0FFA3691BB1BDE81040F0
:101F3000FFF7F0BFC4E912332365134B134A1B6844
:101F4000A262A34204BF0123A361204600F020F84F
:101F50006060204600F01CF8A060204600F018F8F1
:101F60000022E06004216068FFF782FFA068012280
:101F70000921FFF77DFFE06802221221FFF778FFB9
:101F80000123A361D2E700BFA42D0008B91E0008F9
:101F9000F8B50746FFF7ACFF1E4B1E68B36913B9CF
:101FA0003046FFF7BDFF4836D6E90134013B03D583
:101FB00033680BB33668F7E7B4F90C50D5B9164B54
:101FC000E36004F15800656600F047F8FFF796FFFC
:101FD000C4E90155C4E904552560A56108222946D4
:101FE00004F15C00FFF724FFC4E90D55C4E9125564
:101FF0002046F8BD6834D9E704213846FFF762FF70
:10200000044630600028D5D1FFF778FF0C233B60F1
:10201000EEE700BFA42D00080100FFFF2DE9F84303
:102020000646884600F148040027D4E90195B9F135
:10203000010905D52468002CF7D13846BDE8F8839E
:10204000AB89012B07D9B5F90E30013303D02946EE
:102050003046C04707436835E9E770477047704727
:1020600038B50546002945D051F8043C0C1F002B1B
:10207000B8BFE41800F0F6FD1F4A1368104633B9E4
:10208000636014602846BDE8384000F0F1BDA3420B
:102090000BD921686218934204BF1A685B686360B9
:1020A00004BF521822600460ECE71A465B680BB16B
:1020B000A342FAD911685018A0420BD120680144FC
:1020C000501883421160DDD118685B685360014489
:1020D0001160D7E702D90C232B60D3E720682118C1
:1020E0008B4204BF19685B68636004BF09182160F4
:1020F0005460C7E738BD00BF10010020F8B5CD1C03
:1021000025F0030508350C2D38BF0C25002D06469B
:1021100001DBA94203D90C2333600020F8BD00F095
:10212000A1FD21490A6814469CB9204F3B6823B998
:102130002146304600F028FB38602946304600F042
:1021400023FB431C23D10C233360304600F090FD69
:10215000E3E723685B1B17D40B2B03D923601C44D4
:10216000256004E06368A2420CBF0B6053603046F8
:1021700000F07EFD04F10B00231D20F00700C21AC1
:10218000CCD01B1AA350C9E722466468CCE7C41C14
:1021900024F00304A042E3D0211A304600F0F4FA00
:1021A0000130DDD1CFE700BF100100201401002075
:1021B0009368013B002B10B4936007DA9469A34243
:1021C00001DB0A2902D110BC00F032BB1368581C95
:1021D00010601970084610BC7047F8B506460F46E7
:1021E0001446D518AC4201D1002007E014F8011BB9
:1021F0003A463046FFF7DCFF431CF3D1F8BD000040
:102200002DE9F04F0D469DB014469846064618B18C
:1022100083690BB9FFF784FE894B9D421BD175681A
:102220006B6ED90705D4AB899A0502D4A86DFFF768
:1022300015FFAB891B0701D52B69EBB92946304641
:1022400000F05AFBC0B16B6EDC070ED54FF0FF30CB
:102250001DB0BDE8F08F7B4B9D4201D1B568DFE733
:10226000794B9D4208BFF568DAE7AB899805EDD454
:10227000A86DFFF7F4FEE9E70023099320238DF80A
:102280002930CDF80C803023DFF8C0818DF82A305A
:102290004FF0010923469A4613F8012B0AB1252A6B
:1022A000F9D1BAEB040B0BD05B46224629463046E7
:1022B000FFF793FF013000F0AA80099A5A4409926F
:1022C0009AF80030002B00F0A28000234FF0FF327C
:1022D000CDE905230AF1010A049307938DF85330E1
:1022E0001A935446052214F8011B5848FDF720FFA5
:1022F000049AD8B9D10644BF20238DF85330130770
:1023000044BF2B238DF853309AF800302A2B15D078
:10231000079A544600204FF00A0C214611F8013B61
:10232000303B092B4ED9B0B1079214E0A0EB080363
:1023300009FA03F313430493A246D2E7039B191D42
:102340001B680391002BBBBF5B4242F00202079364
:102350000793B8BF049223782E2B0CD163782A2BD5
:1023600035D1039B1A1D1B680392002BB8BF4FF099
:10237000FF3302340593DFF8E4A0217803225046AE
:10238000FDF7D6FE40B14023A0EB0A0003FA00F0AF
:10239000049B03430134049314F8011B2C488DF86B
:1023A00028100622FDF7C4FE00283FD0294B1BBB96
:1023B000039B073323F0070308330393099B3B4434
:1023C000099367E70CFB02320C460120A5E70023C6
:1023D0000134059319464FF00A0C204610F8012BE2
:1023E000303A092A03D9002BC5D00591C3E70CFB6D
:1023F000012104460123F0E703AB00932A46164B64
:1024000004A93046AFF300800746781CD6D16B6E26
:10241000D90705D4AB899A0502D4A86DFFF71FFE32
:10242000AB895B063FF512AF099811E703AB009348
:102430002A46094B04A9304600F080F8E4E700BFC3
:10244000C82D0008E82D0008A82D0008082E000857
:10245000122E000800000000DB2100080E2E0008EC
:102460002DE9F047164699468A680B69DDF8208009
:102470009342B8BF1346336091F8432007460C4699
:102480000AB1013333602368990642BF33680233CF
:102490003360256815F0060506D104F1190AE368D2
:1024A00032689B1AAB4226DC94F84320131E226844
:1024B00018BF012392062BD404F143024946384643
:1024C000C04701301ED02368E568326803F0060378
:1024D000042B08BFAD1AA36822690CBF25EAE57575
:1024E00000259342C4BF9B1AED1800261A34B5424A
:1024F0001AD1002008E00123524649463846C04719
:10250000013003D14FF0FF30BDE8F0870135C6E759
:10251000E1185A1C302081F84300224494F84510F9
:1025200082F843100233C7E7012322464946384662
:10253000C0470130E6D00136D9E700002DE9FF475A
:102540000C469146277E0C99782F80469A4604F1D6
:10255000430207D8622F0AD8002F00F0D880582FE6
:1025600000F0A38004F1420684F842703AE0A7F13B
:102570006303152BF6D801A050F823F0D5250008E9
:10258000E92500086525000865250008652500087F
:1025900065250008E925000865250008652500086F
:1025A0006525000865250008F5260008192600089D
:1025B000D7260008652500086525000817270008AC
:1025C000652500081926000865250008652500080E
:1025D000DF2600080B681A1D1B680A6004F142061A
:1025E00084F842300123A3E0256808682E0600F134
:1025F00004030AD505680B60002D03DA2D236D4214
:1026000084F843305E480A2319E015F0400F05684E
:102610000B6018BF2DB2EFE70B682568181D086026
:10262000280601D51D6802E06906FBD51D885448BF
:102630006F2F0CBF08230A23002184F8431066681B
:10264000A660002EA2BF216821F0040121600DB90F
:10265000002E4DD01646B5FBF3F103FB1157C75DB5
:1026600006F8017D2F46BB420D46F4D9082B0BD14D
:102670002368DF0708D5236961689942DEBF3023EC
:1026800006F8013C06F1FF36921B2261CDF800A04E
:102690004B4603AA21464046FFF7E2FE01304CD1EB
:1026A0004FF0FF3004B0BDE8F087354884F845703E
:1026B00023680E681F0656F8045B0E6014D5D90710
:1026C00044BF43F0200323601DB9236823F0200397
:1026D00023601023B0E7236843F0200323607823AE
:1026E000284884F84530E3E75E0648BFADB2E6E728
:1026F0001646BBE70B68266860691D1D0D60350630
:102700001B6801D5186002E07106FBD51880002314
:1027100023611646BAE70B681A1D0A601E686268D4
:1027200000213046FDF704FD08B1801B606063683E
:102730002361002384F84330A8E7236932464946E1
:102740004046D0470130ABD023689B0713D4E068E4
:10275000039B9842B8BF1846A4E701233246494676
:102760004046D04701309BD00135E36803995B1A9E
:10277000AB42F2DCEBE7002504F11906F5E700BFF8
:10278000192E00082A2E000838B5064D00230446ED
:1027900008462B60FFF71AF9431C02D12B6803B1DE
:1027A000236038BD2C01002010B50C46B1F90E1085
:1027B00000F064FA0028ABBF636DA3891B1823F4F3
:1027C0008053ACBF6365A38110BD2DE9F0411F4666
:1027D0008B89DB0505460C46164605D5B1F90E106A
:1027E0000223002200F0C8F9A389B4F90E1023F4E3
:1027F0008053A38132463B462846BDE8F04100F0B5
:1028000069B810B50C46B1F90E1000F0B5F9431CCB
:10281000A38915BF606523F4805343F48053A381DB
:1028200018BFA38110BDB1F90E1000F0D3B800009D
:10283000F8B50E461446054618B183690BB9FFF783
:102840006FFB214B9C422BD16C68A369A360A389C9
:102850001A072FD523696BB323692068C01A6369EF
:10286000F6B28342374604DC2146284600F048F998
:1028700030BBA368013BA36023685A1C22601E7012
:1028800063690130834204D0A389DB0706D50A2E91
:1028900004D12146284600F033F988B93846F8BDFE
:1028A0000A4B9C4201D1AC68CFE7094B9C4208BF60
:1028B000EC68CAE72146284600F01EF80028CBD075
:1028C0004FF0FF37EAE700BFC82D0008E82D0008E9
:1028D000A82D000838B5074D0446084611460022C9
:1028E0002A601A46FFF79EF8431C02D12B6803B1F9
:1028F000236038BD2C010020324B70B51D680646A0
:102900000C4625B1AB6913B92846FFF709FB2E4BDE
:102910009C420FD16C68A389B4F90C2019072CD400
:10292000DD0611D40923336042F04003A3814FF048
:10293000FF303EE0254B9C4201D1AC68EBE7244BD5
:102940009C4208BFEC68E6E7580712D5616B41B1BD
:1029500004F14403994202D03046FFF781FB002383
:102960006363A38923F02403A381002363602369A5
:102970002360A38943F00803A38123694BB9A3898A
:1029800003F42073B3F5007F03D02146304600F0F6
:1029900029F9A089B4F90C2010F001030AD0002312
:1029A000A36063695B42A361236943B910F08000AF
:1029B000BAD170BD810758BF6369A360F4E70020F6
:1029C000F7E700BF88000020C82D0008E82D0008A8
:1029D000A82D000838B5064D0023044608462B6094
:1029E000FFF73DF8431C02D12B6803B1236038BDCB
:1029F0002C0100208A892DE9F041054610070C467C
:102A000058D44B68002B05DC0B6C002B02DC00203B
:102A1000BDE8F081E66A002EF9D0002312F480525E
:102A20002F682B6032D0606DA3895A0705D5636883
:102A3000C01A636B0BB1236CC01A00230246E66A0E
:102A4000216A2846B047431CA38906D129681D295D
:102A50002CD82A4ACA40D60728D500226260D90459
:102A60002269226004D5421C01D12B6803B960653C
:102A7000616B2F600029CAD004F14403994202D04F
:102A80002846FFF7EDFA00206063C1E7216A0123C1
:102A90002846B047411CC7D12B68002BC4D01D2B42
:102AA00001D0162B01D12F60B1E7A38943F0400379
:102AB000A381ADE70F69002FA9D093070E6808BF67
:102AC0004B690F6018BF0023A6EB07088B60B8F1B5
:102AD000000F9CDD216AA66A43463A462846B04765
:102AE000002806DCA38943F04003A3814FF0FF30A8
:102AF0008EE70744A8EB0008E9E700BF010040208B
:102B000038B50B6905460C4613B90025284638BD73
:102B100018B183690BB9FFF703FA144B9C421BD120
:102B20006C68B4F90C30002BEFD0626ED00704D47F
:102B3000990502D4A06DFFF791FA28462146FFF7C8
:102B400059FF636EDA070546E0D4A3899B05DDD4FF
:102B5000A06DFFF784FAD9E7054B9C4201D1AC6820
:102B6000DFE7044B9C4208BFEC68DAE7C82D000899
:102B7000E82D0008A82D000838B5074D0446084682
:102B8000114600222A601A46FEF78DFF431C02D12F
:102B90002B6803B1236038BD2C01002070B50E46B0
:102BA000B1F90E10002996B014461D4607DA00232D
:102BB0002B60B3891A0610D44FF480630EE06A4686
:102BC00000F06EF80028F2DB019A02F47042A2F5E0
:102BD00000535A425A412A60EEE740230020236006
:102BE00016B070BD8B8973B59D0706460C4607D598
:102BF00004F14703236023610123636102B070BDC8
:102C000001AB6A46FFF7CAFF009905463046FFF759
:102C100075FA48B9B4F90C309A05EFD423F00303E0
:102C200043F00203A381E3E70D4BB362A389206065
:102C300043F08003A381009B6361019B20615BB132
:102C4000B4F90E10304600F03DF828B1A38923F006
:102C5000030343F00103A381A0890543A581CDE7C8
:102C6000B91E00080148FFF7F9B900BF3401002080
:102C70000148FFF7F4B900BF3401002038B5074D13
:102C800004460846114600222A601A46FEF717FF3E
:102C9000431C02D12B6803B1236038BD2C010020F6
:102CA00038B5074D00230446084611462B60FEF751
:102CB000E1FE431C02D12B6803B1236038BD00BF85
:102CC0002C01002038B5064D0023044608462B6031
:102CD000FEF7DFFE431C02D12B6803B1236038BD31
:102CE0002C010020F8B500BFF8BC08BC9E46704718
:0C2CF000F8B500BFF8BC08BC9E46704759
:102CFC000D0A434B5F535953206973202564000020
:102D0C000D0A434B5F414842206973202564000043
:102D1C000D0A434B5F4150423120697320256400FA
:102D2C000D0A434B5F4150423220697320256400E9
:102D3C000D0A474433324633307820736572696527
:102D4C0073206669726D776172652076657273693E
:102D5C006F6E3A205625642E25642E2564000000E3
:102D6C000D0A2063616E30207472616E736D69742C
:102D7C0020646174613A0000202530327800000034
:102D8C00000000000000000001020304060708090F
:102D9C0000000000010203048C0000200000000071
:102DAC000000000000000000000000000000000017
:102DBC000000000000000000000000000000000007
:102DCC0000000000000000000000000000000000F7
:102DDC0000000000000000000000000000000000E7
:102DEC0000000000000000000000000000000000D7
:102DFC00000000000000000000000000232D302B1C
:102E0C002000686C4C0065666745464700303132DF
:102E1C003334353637383941424344454600303136
:102E2C003233343536373839616263646566000095
:042E3C00F501000894
:042E4000D1010008B4
:102E4400001001400010014000180140001801402A
:102E54000040000004000000010000000200000027
:102E64000E06110700020000040000000004000028
:102E740008000000000801400008014002060206A4
:102E84000406040606060606000801400010014078
:102E9400000C014001000000002000000040000080
:102EA40002060406030600000100000000200000E2
:102EB4000040000000020100000D0E00062828005A
:102EC4003C010020000E27078C00002000000000B9
:102ED400C82D0008E82D0008A82D000800000000F7
:102EE40000000000000000000000000000000000DE
:102EF40000000000000000000000000000000000CE
:102F040000000000000000000000000000000000BD
:102F140000000000000000000000000000000000AD
:0C2F2400000000000000000000000000A1
:040000050800087D6A
:00000001FF
